{
  "_format": "hh-sol-artifact-1",
  "contractName": "Transceiver",
  "sourceName": "contracts/Transceiver.sol",
  "abi": [
    {
      "anonymous": false,
      "inputs": [
        {
          "indexed": false,
          "internalType": "string",
          "name": "noticeData",
          "type": "string"
        },
        {
          "indexed": false,
          "internalType": "uint64",
          "name": "noticeID",
          "type": "uint64"
        },
        {
          "indexed": false,
          "internalType": "uint64",
          "name": "gsmNumber",
          "type": "uint64"
        }
      ],
      "name": "NoticeData",
      "type": "event"
    },
    {
      "anonymous": false,
      "inputs": [
        {
          "indexed": false,
          "internalType": "uint8",
          "name": "status",
          "type": "uint8"
        },
        {
          "indexed": false,
          "internalType": "uint64",
          "name": "noticeID",
          "type": "uint64"
        },
        {
          "indexed": false,
          "internalType": "uint64",
          "name": "gsmNumber",
          "type": "uint64"
        }
      ],
      "name": "NoticeSent",
      "type": "event"
    },
    {
      "inputs": [
        {
          "internalType": "string",
          "name": "noticeData",
          "type": "string"
        },
        {
          "internalType": "uint64",
          "name": "noticeID",
          "type": "uint64"
        },
        {
          "internalType": "uint64",
          "name": "gsmNumber",
          "type": "uint64"
        }
      ],
      "name": "sendNoticeData",
      "outputs": [],
      "stateMutability": "nonpayable",
      "type": "function"
    },
    {
      "inputs": [
        {
          "internalType": "uint64",
          "name": "noticeID",
          "type": "uint64"
        },
        {
          "internalType": "uint64",
          "name": "jobID",
          "type": "uint64"
        },
        {
          "internalType": "uint8",
          "name": "status",
          "type": "uint8"
        }
      ],
      "name": "updateNoticeStatus",
      "outputs": [],
      "stateMutability": "nonpayable",
      "type": "function"
    }
  ],
  "bytecode": "0x6080604052348015600f57600080fd5b5061060d8061001f6000396000f3fe608060405234801561001057600080fd5b50600436106100365760003560e01c80631508c4921461003b5780632e293d2214610057575b600080fd5b610055600480360381019061005091906103e4565b610073565b005b610071600480360381019061006c9190610491565b610103565b005b806000808467ffffffffffffffff1667ffffffffffffffff16815260200190815260200160002060006101000a81548167ffffffffffffffff021916908367ffffffffffffffff1602179055507fc5d950218910b25f2def8f1ae6165240e411cc7c450ddb19864e86cc9436b56c848484846040516100f59493929190610551565b60405180910390a150505050565b6000600160008467ffffffffffffffff1667ffffffffffffffff16815260200190815260200160002060000160099054906101000a900460ff166102205760018060008567ffffffffffffffff1667ffffffffffffffff16815260200190815260200160002060000160096101000a81548160ff02191690831515021790555083600160008567ffffffffffffffff1667ffffffffffffffff16815260200190815260200160002060000160006101000a81548167ffffffffffffffff021916908367ffffffffffffffff16021790555081600160008567ffffffffffffffff1667ffffffffffffffff16815260200190815260200160002060000160086101000a81548160ff021916908360ff160217905550600190506102ad565b8160ff16600160008567ffffffffffffffff1667ffffffffffffffff16815260200190815260200160002060000160089054906101000a900460ff1660ff16146102ac5781600160008567ffffffffffffffff1667ffffffffffffffff16815260200190815260200160002060000160086101000a81548160ff021916908360ff160217905550600190505b5b801561032f5760008060008667ffffffffffffffff1667ffffffffffffffff16815260200190815260200160002060009054906101000a900467ffffffffffffffff1690507f9efc5c86301e2ccf0abfa11a164c4f77fc8c37cf5fc1c59877166089f3104b75838683604051610325939291906105a0565b60405180910390a1505b50505050565b600080fd5b600080fd5b600080fd5b600080fd5b600080fd5b60008083601f8401126103645761036361033f565b5b8235905067ffffffffffffffff81111561038157610380610344565b5b60208301915083600182028301111561039d5761039c610349565b5b9250929050565b600067ffffffffffffffff82169050919050565b6103c1816103a4565b81146103cc57600080fd5b50565b6000813590506103de816103b8565b92915050565b600080600080606085870312156103fe576103fd610335565b5b600085013567ffffffffffffffff81111561041c5761041b61033a565b5b6104288782880161034e565b9450945050602061043b878288016103cf565b925050604061044c878288016103cf565b91505092959194509250565b600060ff82169050919050565b61046e81610458565b811461047957600080fd5b50565b60008135905061048b81610465565b92915050565b6000806000606084860312156104aa576104a9610335565b5b60006104b8868287016103cf565b93505060206104c9868287016103cf565b92505060406104da8682870161047c565b9150509250925092565b600082825260208201905092915050565b82818337600083830152505050565b6000601f19601f8301169050919050565b600061052183856104e4565b935061052e8385846104f5565b61053783610504565b840190509392505050565b61054b816103a4565b82525050565b6000606082019050818103600083015261056c818688610515565b905061057b6020830185610542565b6105886040830184610542565b95945050505050565b61059a81610458565b82525050565b60006060820190506105b56000830186610591565b6105c26020830185610542565b6105cf6040830184610542565b94935050505056fea264697066735822122097fdcf91fca057b175367edb80e6ce84bcf196e34cd76cc969afc20651cbccda64736f6c634300081b0033",
  "linkReferences": {},
  "deployedLinkReferences": {}
}