{"contracts/Transceiver.sol":{"Transceiver":{"abi":[{"anonymous":false,"inputs":[{"indexed":false,"internalType":"string","name":"noticeData","type":"string"},{"indexed":false,"internalType":"uint64","name":"noticeID","type":"uint64"},{"indexed":false,"internalType":"uint64","name":"gsmNumber","type":"uint64"}],"name":"NoticeData","type":"event"},{"anonymous":false,"inputs":[{"indexed":false,"internalType":"enum Transceiver.NoticeStatusEnum","name":"status","type":"uint8"},{"indexed":false,"internalType":"uint64","name":"noticeID","type":"uint64"},{"indexed":false,"internalType":"uint64","name":"gsmNumber","type":"uint64"},{"indexed":false,"internalType":"uint256","name":"clientTsMs","type":"uint256"}],"name":"NoticeStatusUpdate","type":"event"},{"anonymous":false,"inputs":[{"indexed":false,"internalType":"uint64","name":"noticeID","type":"uint64"}],"name":"SendNoticeDataFunctionCallReceived","type":"event"},{"anonymous":false,"inputs":[{"indexed":false,"internalType":"uint64","name":"noticeID","type":"uint64"}],"name":"UpdateNoticeStatusFunctionCallReceived","type":"event"},{"inputs":[{"internalType":"string","name":"noticeData","type":"string"},{"internalType":"uint64","name":"noticeID","type":"uint64"},{"internalType":"uint64","name":"gsmNumber","type":"uint64"}],"name":"sendNoticeData","outputs":[],"stateMutability":"nonpayable","type":"function"},{"inputs":[{"internalType":"uint64","name":"noticeID","type":"uint64"},{"internalType":"uint64","name":"jobID","type":"uint64"},{"internalType":"enum Transceiver.NoticeStatusEnum","name":"status","type":"uint8"},{"internalType":"uint256","name":"clientTsMs","type":"uint256"}],"name":"updateNoticeStatus","outputs":[],"stateMutability":"nonpayable","type":"function"}],"evm":{"bytecode":{"linkReferences":{},"object":"6080604052348015600f57600080fd5b506108ef8061001f6000396000f3fe608060405234801561001057600080fd5b50600436106100365760003560e01c80631508c4921461003b5780636e9409b714610057575b600080fd5b61005560048036038101906100509190610584565b610073565b005b610071600480360381019061006c9190610653565b61013a565b005b806000808467ffffffffffffffff1667ffffffffffffffff16815260200190815260200160002060006101000a81548167ffffffffffffffff021916908367ffffffffffffffff1602179055507f671c8b4f2b4548b6e727bff02051c90f8391b4bccafdab0a6b0eb12cc18f3255826040516100ef91906106c9565b60405180910390a17fc5d950218910b25f2def8f1ae6165240e411cc7c450ddb19864e86cc9436b56c8484848460405161012c9493929190610742565b60405180910390a150505050565b6000600381111561014e5761014d610782565b5b82600381111561016157610160610782565b5b148061019157506001600381111561017c5761017b610782565b5b82600381111561018f5761018e610782565b5b145b806101c05750600260038111156101ab576101aa610782565b5b8260038111156101be576101bd610782565b5b145b806101ee57506003808111156101d9576101d8610782565b5b8260038111156101ec576101eb610782565b5b145b61022d576040517f08c379a0000000000000000000000000000000000000000000000000000000008152600401610224906107fd565b60405180910390fd5b7fff2c145f85497ed53c004ea1659d6fbd0de4e9938e44f4aefe32f6d23d25c40a8460405161025c91906106c9565b60405180910390a16000600160008567ffffffffffffffff1667ffffffffffffffff16815260200190815260200160002060000160099054906101000a900460ff166103905760018060008667ffffffffffffffff1667ffffffffffffffff16815260200190815260200160002060000160096101000a81548160ff02191690831515021790555084600160008667ffffffffffffffff1667ffffffffffffffff16815260200190815260200160002060000160006101000a81548167ffffffffffffffff021916908367ffffffffffffffff16021790555082600160008667ffffffffffffffff1667ffffffffffffffff16815260200190815260200160002060000160086101000a81548160ff0219169083600381111561038257610381610782565b5b02179055506001905061044a565b8260038111156103a3576103a2610782565b5b600160008667ffffffffffffffff1667ffffffffffffffff16815260200190815260200160002060000160089054906101000a900460ff1660038111156103ed576103ec610782565b5b146104495782600160008667ffffffffffffffff1667ffffffffffffffff16815260200190815260200160002060000160086101000a81548160ff0219169083600381111561043f5761043e610782565b5b0217905550600190505b5b80156104ce5760008060008767ffffffffffffffff1667ffffffffffffffff16815260200190815260200160002060009054906101000a900467ffffffffffffffff1690507f1c13db00523cd90d3aea2c629fb044e6026929a922bc6c22596b8ebf8136cc29848783866040516104c49493929190610874565b60405180910390a1505b5050505050565b600080fd5b600080fd5b600080fd5b600080fd5b600080fd5b60008083601f840112610504576105036104df565b5b8235905067ffffffffffffffff811115610521576105206104e4565b5b60208301915083600182028301111561053d5761053c6104e9565b5b9250929050565b600067ffffffffffffffff82169050919050565b61056181610544565b811461056c57600080fd5b50565b60008135905061057e81610558565b92915050565b6000806000806060858703121561059e5761059d6104d5565b5b600085013567ffffffffffffffff8111156105bc576105bb6104da565b5b6105c8878288016104ee565b945094505060206105db8782880161056f565b92505060406105ec8782880161056f565b91505092959194509250565b6004811061060557600080fd5b50565b600081359050610617816105f8565b92915050565b6000819050919050565b6106308161061d565b811461063b57600080fd5b50565b60008135905061064d81610627565b92915050565b6000806000806080858703121561066d5761066c6104d5565b5b600061067b8782880161056f565b945050602061068c8782880161056f565b935050604061069d87828801610608565b92505060606106ae8782880161063e565b91505092959194509250565b6106c381610544565b82525050565b60006020820190506106de60008301846106ba565b92915050565b600082825260208201905092915050565b82818337600083830152505050565b6000601f19601f8301169050919050565b600061072183856106e4565b935061072e8385846106f5565b61073783610704565b840190509392505050565b6000606082019050818103600083015261075d818688610715565b905061076c60208301856106ba565b61077960408301846106ba565b95945050505050565b7f4e487b7100000000000000000000000000000000000000000000000000000000600052602160045260246000fd5b7f696e76616c696400000000000000000000000000000000000000000000000000600082015250565b60006107e76007836106e4565b91506107f2826107b1565b602082019050919050565b60006020820190508181036000830152610816816107da565b9050919050565b6004811061082e5761082d610782565b5b50565b600081905061083f8261081d565b919050565b600061084f82610831565b9050919050565b61085f81610844565b82525050565b61086e8161061d565b82525050565b60006080820190506108896000830187610856565b61089660208301866106ba565b6108a360408301856106ba565b6108b06060830184610865565b9594505050505056fea2646970667358221220cdac23c98c42d2b81a1543cf9a9ace9ffe814007fb77cc8f82a00468b449a73964736f6c634300081b0033","opcodes":"PUSH1 0x80 PUSH1 0x40 MSTORE CALLVALUE DUP1 ISZERO PUSH1 0xF JUMPI PUSH1 0x0 DUP1 REVERT JUMPDEST POP PUSH2 0x8EF DUP1 PUSH2 0x1F PUSH1 0x0 CODECOPY PUSH1 0x0 RETURN INVALID PUSH1 0x80 PUSH1 0x40 MSTORE CALLVALUE DUP1 ISZERO PUSH2 0x10 JUMPI PUSH1 0x0 DUP1 REVERT JUMPDEST POP PUSH1 0x4 CALLDATASIZE LT PUSH2 0x36 JUMPI PUSH1 0x0 CALLDATALOAD PUSH1 0xE0 SHR DUP1 PUSH4 0x1508C492 EQ PUSH2 0x3B JUMPI DUP1 PUSH4 0x6E9409B7 EQ PUSH2 0x57 JUMPI JUMPDEST PUSH1 0x0 DUP1 REVERT JUMPDEST PUSH2 0x55 PUSH1 0x4 DUP1 CALLDATASIZE SUB DUP2 ADD SWAP1 PUSH2 0x50 SWAP2 SWAP1 PUSH2 0x584 JUMP JUMPDEST PUSH2 0x73 JUMP JUMPDEST STOP JUMPDEST PUSH2 0x71 PUSH1 0x4 DUP1 CALLDATASIZE SUB DUP2 ADD SWAP1 PUSH2 0x6C SWAP2 SWAP1 PUSH2 0x653 JUMP JUMPDEST PUSH2 0x13A JUMP JUMPDEST STOP JUMPDEST DUP1 PUSH1 0x0 DUP1 DUP5 PUSH8 0xFFFFFFFFFFFFFFFF AND PUSH8 0xFFFFFFFFFFFFFFFF AND DUP2 MSTORE PUSH1 0x20 ADD SWAP1 DUP2 MSTORE PUSH1 0x20 ADD PUSH1 0x0 KECCAK256 PUSH1 0x0 PUSH2 0x100 EXP DUP2 SLOAD DUP2 PUSH8 0xFFFFFFFFFFFFFFFF MUL NOT AND SWAP1 DUP4 PUSH8 0xFFFFFFFFFFFFFFFF AND MUL OR SWAP1 SSTORE POP PUSH32 0x671C8B4F2B4548B6E727BFF02051C90F8391B4BCCAFDAB0A6B0EB12CC18F3255 DUP3 PUSH1 0x40 MLOAD PUSH2 0xEF SWAP2 SWAP1 PUSH2 0x6C9 JUMP JUMPDEST PUSH1 0x40 MLOAD DUP1 SWAP2 SUB SWAP1 LOG1 PUSH32 0xC5D950218910B25F2DEF8F1AE6165240E411CC7C450DDB19864E86CC9436B56C DUP5 DUP5 DUP5 DUP5 PUSH1 0x40 MLOAD PUSH2 0x12C SWAP5 SWAP4 SWAP3 SWAP2 SWAP1 PUSH2 0x742 JUMP JUMPDEST PUSH1 0x40 MLOAD DUP1 SWAP2 SUB SWAP1 LOG1 POP POP POP POP JUMP JUMPDEST PUSH1 0x0 PUSH1 0x3 DUP2 GT ISZERO PUSH2 0x14E JUMPI PUSH2 0x14D PUSH2 0x782 JUMP JUMPDEST JUMPDEST DUP3 PUSH1 0x3 DUP2 GT ISZERO PUSH2 0x161 JUMPI PUSH2 0x160 PUSH2 0x782 JUMP JUMPDEST JUMPDEST EQ DUP1 PUSH2 0x191 JUMPI POP PUSH1 0x1 PUSH1 0x3 DUP2 GT ISZERO PUSH2 0x17C JUMPI PUSH2 0x17B PUSH2 0x782 JUMP JUMPDEST JUMPDEST DUP3 PUSH1 0x3 DUP2 GT ISZERO PUSH2 0x18F JUMPI PUSH2 0x18E PUSH2 0x782 JUMP JUMPDEST JUMPDEST EQ JUMPDEST DUP1 PUSH2 0x1C0 JUMPI POP PUSH1 0x2 PUSH1 0x3 DUP2 GT ISZERO PUSH2 0x1AB JUMPI PUSH2 0x1AA PUSH2 0x782 JUMP JUMPDEST JUMPDEST DUP3 PUSH1 0x3 DUP2 GT ISZERO PUSH2 0x1BE JUMPI PUSH2 0x1BD PUSH2 0x782 JUMP JUMPDEST JUMPDEST EQ JUMPDEST DUP1 PUSH2 0x1EE JUMPI POP PUSH1 0x3 DUP1 DUP2 GT ISZERO PUSH2 0x1D9 JUMPI PUSH2 0x1D8 PUSH2 0x782 JUMP JUMPDEST JUMPDEST DUP3 PUSH1 0x3 DUP2 GT ISZERO PUSH2 0x1EC JUMPI PUSH2 0x1EB PUSH2 0x782 JUMP JUMPDEST JUMPDEST EQ JUMPDEST PUSH2 0x22D JUMPI PUSH1 0x40 MLOAD PUSH32 0x8C379A000000000000000000000000000000000000000000000000000000000 DUP2 MSTORE PUSH1 0x4 ADD PUSH2 0x224 SWAP1 PUSH2 0x7FD JUMP JUMPDEST PUSH1 0x40 MLOAD DUP1 SWAP2 SUB SWAP1 REVERT JUMPDEST PUSH32 0xFF2C145F85497ED53C004EA1659D6FBD0DE4E9938E44F4AEFE32F6D23D25C40A DUP5 PUSH1 0x40 MLOAD PUSH2 0x25C SWAP2 SWAP1 PUSH2 0x6C9 JUMP JUMPDEST PUSH1 0x40 MLOAD DUP1 SWAP2 SUB SWAP1 LOG1 PUSH1 0x0 PUSH1 0x1 PUSH1 0x0 DUP6 PUSH8 0xFFFFFFFFFFFFFFFF AND PUSH8 0xFFFFFFFFFFFFFFFF AND DUP2 MSTORE PUSH1 0x20 ADD SWAP1 DUP2 MSTORE PUSH1 0x20 ADD PUSH1 0x0 KECCAK256 PUSH1 0x0 ADD PUSH1 0x9 SWAP1 SLOAD SWAP1 PUSH2 0x100 EXP SWAP1 DIV PUSH1 0xFF AND PUSH2 0x390 JUMPI PUSH1 0x1 DUP1 PUSH1 0x0 DUP7 PUSH8 0xFFFFFFFFFFFFFFFF AND PUSH8 0xFFFFFFFFFFFFFFFF AND DUP2 MSTORE PUSH1 0x20 ADD SWAP1 DUP2 MSTORE PUSH1 0x20 ADD PUSH1 0x0 KECCAK256 PUSH1 0x0 ADD PUSH1 0x9 PUSH2 0x100 EXP DUP2 SLOAD DUP2 PUSH1 0xFF MUL NOT AND SWAP1 DUP4 ISZERO ISZERO MUL OR SWAP1 SSTORE POP DUP5 PUSH1 0x1 PUSH1 0x0 DUP7 PUSH8 0xFFFFFFFFFFFFFFFF AND PUSH8 0xFFFFFFFFFFFFFFFF AND DUP2 MSTORE PUSH1 0x20 ADD SWAP1 DUP2 MSTORE PUSH1 0x20 ADD PUSH1 0x0 KECCAK256 PUSH1 0x0 ADD PUSH1 0x0 PUSH2 0x100 EXP DUP2 SLOAD DUP2 PUSH8 0xFFFFFFFFFFFFFFFF MUL NOT AND SWAP1 DUP4 PUSH8 0xFFFFFFFFFFFFFFFF AND MUL OR SWAP1 SSTORE POP DUP3 PUSH1 0x1 PUSH1 0x0 DUP7 PUSH8 0xFFFFFFFFFFFFFFFF AND PUSH8 0xFFFFFFFFFFFFFFFF AND DUP2 MSTORE PUSH1 0x20 ADD SWAP1 DUP2 MSTORE PUSH1 0x20 ADD PUSH1 0x0 KECCAK256 PUSH1 0x0 ADD PUSH1 0x8 PUSH2 0x100 EXP DUP2 SLOAD DUP2 PUSH1 0xFF MUL NOT AND SWAP1 DUP4 PUSH1 0x3 DUP2 GT ISZERO PUSH2 0x382 JUMPI PUSH2 0x381 PUSH2 0x782 JUMP JUMPDEST JUMPDEST MUL OR SWAP1 SSTORE POP PUSH1 0x1 SWAP1 POP PUSH2 0x44A JUMP JUMPDEST DUP3 PUSH1 0x3 DUP2 GT ISZERO PUSH2 0x3A3 JUMPI PUSH2 0x3A2 PUSH2 0x782 JUMP JUMPDEST JUMPDEST PUSH1 0x1 PUSH1 0x0 DUP7 PUSH8 0xFFFFFFFFFFFFFFFF AND PUSH8 0xFFFFFFFFFFFFFFFF AND DUP2 MSTORE PUSH1 0x20 ADD SWAP1 DUP2 MSTORE PUSH1 0x20 ADD PUSH1 0x0 KECCAK256 PUSH1 0x0 ADD PUSH1 0x8 SWAP1 SLOAD SWAP1 PUSH2 0x100 EXP SWAP1 DIV PUSH1 0xFF AND PUSH1 0x3 DUP2 GT ISZERO PUSH2 0x3ED JUMPI PUSH2 0x3EC PUSH2 0x782 JUMP JUMPDEST JUMPDEST EQ PUSH2 0x449 JUMPI DUP3 PUSH1 0x1 PUSH1 0x0 DUP7 PUSH8 0xFFFFFFFFFFFFFFFF AND PUSH8 0xFFFFFFFFFFFFFFFF AND DUP2 MSTORE PUSH1 0x20 ADD SWAP1 DUP2 MSTORE PUSH1 0x20 ADD PUSH1 0x0 KECCAK256 PUSH1 0x0 ADD PUSH1 0x8 PUSH2 0x100 EXP DUP2 SLOAD DUP2 PUSH1 0xFF MUL NOT AND SWAP1 DUP4 PUSH1 0x3 DUP2 GT ISZERO PUSH2 0x43F JUMPI PUSH2 0x43E PUSH2 0x782 JUMP JUMPDEST JUMPDEST MUL OR SWAP1 SSTORE POP PUSH1 0x1 SWAP1 POP JUMPDEST JUMPDEST DUP1 ISZERO PUSH2 0x4CE JUMPI PUSH1 0x0 DUP1 PUSH1 0x0 DUP8 PUSH8 0xFFFFFFFFFFFFFFFF AND PUSH8 0xFFFFFFFFFFFFFFFF AND DUP2 MSTORE PUSH1 0x20 ADD SWAP1 DUP2 MSTORE PUSH1 0x20 ADD PUSH1 0x0 KECCAK256 PUSH1 0x0 SWAP1 SLOAD SWAP1 PUSH2 0x100 EXP SWAP1 DIV PUSH8 0xFFFFFFFFFFFFFFFF AND SWAP1 POP PUSH32 0x1C13DB00523CD90D3AEA2C629FB044E6026929A922BC6C22596B8EBF8136CC29 DUP5 DUP8 DUP4 DUP7 PUSH1 0x40 MLOAD PUSH2 0x4C4 SWAP5 SWAP4 SWAP3 SWAP2 SWAP1 PUSH2 0x874 JUMP JUMPDEST PUSH1 0x40 MLOAD DUP1 SWAP2 SUB SWAP1 LOG1 POP JUMPDEST POP POP POP POP POP JUMP JUMPDEST PUSH1 0x0 DUP1 REVERT JUMPDEST PUSH1 0x0 DUP1 REVERT JUMPDEST PUSH1 0x0 DUP1 REVERT JUMPDEST PUSH1 0x0 DUP1 REVERT JUMPDEST PUSH1 0x0 DUP1 REVERT JUMPDEST PUSH1 0x0 DUP1 DUP4 PUSH1 0x1F DUP5 ADD SLT PUSH2 0x504 JUMPI PUSH2 0x503 PUSH2 0x4DF JUMP JUMPDEST JUMPDEST DUP3 CALLDATALOAD SWAP1 POP PUSH8 0xFFFFFFFFFFFFFFFF DUP2 GT ISZERO PUSH2 0x521 JUMPI PUSH2 0x520 PUSH2 0x4E4 JUMP JUMPDEST JUMPDEST PUSH1 0x20 DUP4 ADD SWAP2 POP DUP4 PUSH1 0x1 DUP3 MUL DUP4 ADD GT ISZERO PUSH2 0x53D JUMPI PUSH2 0x53C PUSH2 0x4E9 JUMP JUMPDEST JUMPDEST SWAP3 POP SWAP3 SWAP1 POP JUMP JUMPDEST PUSH1 0x0 PUSH8 0xFFFFFFFFFFFFFFFF DUP3 AND SWAP1 POP SWAP2 SWAP1 POP JUMP JUMPDEST PUSH2 0x561 DUP2 PUSH2 0x544 JUMP JUMPDEST DUP2 EQ PUSH2 0x56C JUMPI PUSH1 0x0 DUP1 REVERT JUMPDEST POP JUMP JUMPDEST PUSH1 0x0 DUP2 CALLDATALOAD SWAP1 POP PUSH2 0x57E DUP2 PUSH2 0x558 JUMP JUMPDEST SWAP3 SWAP2 POP POP JUMP JUMPDEST PUSH1 0x0 DUP1 PUSH1 0x0 DUP1 PUSH1 0x60 DUP6 DUP8 SUB SLT ISZERO PUSH2 0x59E JUMPI PUSH2 0x59D PUSH2 0x4D5 JUMP JUMPDEST JUMPDEST PUSH1 0x0 DUP6 ADD CALLDATALOAD PUSH8 0xFFFFFFFFFFFFFFFF DUP2 GT ISZERO PUSH2 0x5BC JUMPI PUSH2 0x5BB PUSH2 0x4DA JUMP JUMPDEST JUMPDEST PUSH2 0x5C8 DUP8 DUP3 DUP9 ADD PUSH2 0x4EE JUMP JUMPDEST SWAP5 POP SWAP5 POP POP PUSH1 0x20 PUSH2 0x5DB DUP8 DUP3 DUP9 ADD PUSH2 0x56F JUMP JUMPDEST SWAP3 POP POP PUSH1 0x40 PUSH2 0x5EC DUP8 DUP3 DUP9 ADD PUSH2 0x56F JUMP JUMPDEST SWAP2 POP POP SWAP3 SWAP6 SWAP2 SWAP5 POP SWAP3 POP JUMP JUMPDEST PUSH1 0x4 DUP2 LT PUSH2 0x605 JUMPI PUSH1 0x0 DUP1 REVERT JUMPDEST POP JUMP JUMPDEST PUSH1 0x0 DUP2 CALLDATALOAD SWAP1 POP PUSH2 0x617 DUP2 PUSH2 0x5F8 JUMP JUMPDEST SWAP3 SWAP2 POP POP JUMP JUMPDEST PUSH1 0x0 DUP2 SWAP1 POP SWAP2 SWAP1 POP JUMP JUMPDEST PUSH2 0x630 DUP2 PUSH2 0x61D JUMP JUMPDEST DUP2 EQ PUSH2 0x63B JUMPI PUSH1 0x0 DUP1 REVERT JUMPDEST POP JUMP JUMPDEST PUSH1 0x0 DUP2 CALLDATALOAD SWAP1 POP PUSH2 0x64D DUP2 PUSH2 0x627 JUMP JUMPDEST SWAP3 SWAP2 POP POP JUMP JUMPDEST PUSH1 0x0 DUP1 PUSH1 0x0 DUP1 PUSH1 0x80 DUP6 DUP8 SUB SLT ISZERO PUSH2 0x66D JUMPI PUSH2 0x66C PUSH2 0x4D5 JUMP JUMPDEST JUMPDEST PUSH1 0x0 PUSH2 0x67B DUP8 DUP3 DUP9 ADD PUSH2 0x56F JUMP JUMPDEST SWAP5 POP POP PUSH1 0x20 PUSH2 0x68C DUP8 DUP3 DUP9 ADD PUSH2 0x56F JUMP JUMPDEST SWAP4 POP POP PUSH1 0x40 PUSH2 0x69D DUP8 DUP3 DUP9 ADD PUSH2 0x608 JUMP JUMPDEST SWAP3 POP POP PUSH1 0x60 PUSH2 0x6AE DUP8 DUP3 DUP9 ADD PUSH2 0x63E JUMP JUMPDEST SWAP2 POP POP SWAP3 SWAP6 SWAP2 SWAP5 POP SWAP3 POP JUMP JUMPDEST PUSH2 0x6C3 DUP2 PUSH2 0x544 JUMP JUMPDEST DUP3 MSTORE POP POP JUMP JUMPDEST PUSH1 0x0 PUSH1 0x20 DUP3 ADD SWAP1 POP PUSH2 0x6DE PUSH1 0x0 DUP4 ADD DUP5 PUSH2 0x6BA JUMP JUMPDEST SWAP3 SWAP2 POP POP JUMP JUMPDEST PUSH1 0x0 DUP3 DUP3 MSTORE PUSH1 0x20 DUP3 ADD SWAP1 POP SWAP3 SWAP2 POP POP JUMP JUMPDEST DUP3 DUP2 DUP4 CALLDATACOPY PUSH1 0x0 DUP4 DUP4 ADD MSTORE POP POP POP JUMP JUMPDEST PUSH1 0x0 PUSH1 0x1F NOT PUSH1 0x1F DUP4 ADD AND SWAP1 POP SWAP2 SWAP1 POP JUMP JUMPDEST PUSH1 0x0 PUSH2 0x721 DUP4 DUP6 PUSH2 0x6E4 JUMP JUMPDEST SWAP4 POP PUSH2 0x72E DUP4 DUP6 DUP5 PUSH2 0x6F5 JUMP JUMPDEST PUSH2 0x737 DUP4 PUSH2 0x704 JUMP JUMPDEST DUP5 ADD SWAP1 POP SWAP4 SWAP3 POP POP POP JUMP JUMPDEST PUSH1 0x0 PUSH1 0x60 DUP3 ADD SWAP1 POP DUP2 DUP2 SUB PUSH1 0x0 DUP4 ADD MSTORE PUSH2 0x75D DUP2 DUP7 DUP9 PUSH2 0x715 JUMP JUMPDEST SWAP1 POP PUSH2 0x76C PUSH1 0x20 DUP4 ADD DUP6 PUSH2 0x6BA JUMP JUMPDEST PUSH2 0x779 PUSH1 0x40 DUP4 ADD DUP5 PUSH2 0x6BA JUMP JUMPDEST SWAP6 SWAP5 POP POP POP POP POP JUMP JUMPDEST PUSH32 0x4E487B7100000000000000000000000000000000000000000000000000000000 PUSH1 0x0 MSTORE PUSH1 0x21 PUSH1 0x4 MSTORE PUSH1 0x24 PUSH1 0x0 REVERT JUMPDEST PUSH32 0x696E76616C696400000000000000000000000000000000000000000000000000 PUSH1 0x0 DUP3 ADD MSTORE POP JUMP JUMPDEST PUSH1 0x0 PUSH2 0x7E7 PUSH1 0x7 DUP4 PUSH2 0x6E4 JUMP JUMPDEST SWAP2 POP PUSH2 0x7F2 DUP3 PUSH2 0x7B1 JUMP JUMPDEST PUSH1 0x20 DUP3 ADD SWAP1 POP SWAP2 SWAP1 POP JUMP JUMPDEST PUSH1 0x0 PUSH1 0x20 DUP3 ADD SWAP1 POP DUP2 DUP2 SUB PUSH1 0x0 DUP4 ADD MSTORE PUSH2 0x816 DUP2 PUSH2 0x7DA JUMP JUMPDEST SWAP1 POP SWAP2 SWAP1 POP JUMP JUMPDEST PUSH1 0x4 DUP2 LT PUSH2 0x82E JUMPI PUSH2 0x82D PUSH2 0x782 JUMP JUMPDEST JUMPDEST POP JUMP JUMPDEST PUSH1 0x0 DUP2 SWAP1 POP PUSH2 0x83F DUP3 PUSH2 0x81D JUMP JUMPDEST SWAP2 SWAP1 POP JUMP JUMPDEST PUSH1 0x0 PUSH2 0x84F DUP3 PUSH2 0x831 JUMP JUMPDEST SWAP1 POP SWAP2 SWAP1 POP JUMP JUMPDEST PUSH2 0x85F DUP2 PUSH2 0x844 JUMP JUMPDEST DUP3 MSTORE POP POP JUMP JUMPDEST PUSH2 0x86E DUP2 PUSH2 0x61D JUMP JUMPDEST DUP3 MSTORE POP POP JUMP JUMPDEST PUSH1 0x0 PUSH1 0x80 DUP3 ADD SWAP1 POP PUSH2 0x889 PUSH1 0x0 DUP4 ADD DUP8 PUSH2 0x856 JUMP JUMPDEST PUSH2 0x896 PUSH1 0x20 DUP4 ADD DUP7 PUSH2 0x6BA JUMP JUMPDEST PUSH2 0x8A3 PUSH1 0x40 DUP4 ADD DUP6 PUSH2 0x6BA JUMP JUMPDEST PUSH2 0x8B0 PUSH1 0x60 DUP4 ADD DUP5 PUSH2 0x865 JUMP JUMPDEST SWAP6 SWAP5 POP POP POP POP POP JUMP INVALID LOG2 PUSH5 0x6970667358 0x22 SLT KECCAK256 0xCD 0xAC 0x23 0xC9 DUP13 TIMESTAMP 0xD2 0xB8 BYTE ISZERO NUMBER 0xCF SWAP11 SWAP11 0xCE SWAP16 INVALID DUP2 BLOCKHASH SMOD 0xFB PUSH24 0xCC8F82A00468B449A73964736F6C634300081B0033000000 "},"methodIdentifiers":{"sendNoticeData(string,uint64,uint64)":"1508c492","updateNoticeStatus(uint64,uint64,uint8,uint256)":"6e9409b7"}}}}}