{
  "contracts/Transceiver.sol": {
    "Transceiver": {
      "abi": [
        {
          "anonymous": false,
          "inputs": [
            {
              "indexed": false,
              "internalType": "string",
              "name": "noticeData",
              "type": "string"
            },
            {
              "indexed": false,
              "internalType": "uint64",
              "name": "noticeID",
              "type": "uint64"
            },
            {
              "indexed": false,
              "internalType": "uint64",
              "name": "gsmNumber",
              "type": "uint64"
            }
          ],
          "name": "NoticeData",
          "type": "event"
        },
        {
          "anonymous": false,
          "inputs": [
            {
              "indexed": false,
              "internalType": "uint8",
              "name": "status",
              "type": "uint8"
            },
            {
              "indexed": false,
              "internalType": "uint64",
              "name": "noticeID",
              "type": "uint64"
            },
            {
              "indexed": false,
              "internalType": "uint64",
              "name": "gsmNumber",
              "type": "uint64"
            }
          ],
          "name": "NoticeSent",
          "type": "event"
        },
        {
          "anonymous": false,
          "inputs": [
            {
              "indexed": false,
              "internalType": "uint64",
              "name": "noticeID",
              "type": "uint64"
            }
          ],
          "name": "SendNoticeDataFunctionCallReceived",
          "type": "event"
        },
        {
          "anonymous": false,
          "inputs": [
            {
              "indexed": false,
              "internalType": "uint64",
              "name": "noticeID",
              "type": "uint64"
            }
          ],
          "name": "UpdateNoticeStatusFunctionCallReceived",
          "type": "event"
        },
        {
          "inputs": [
            {
              "internalType": "string",
              "name": "noticeData",
              "type": "string"
            },
            {
              "internalType": "uint64",
              "name": "noticeID",
              "type": "uint64"
            },
            {
              "internalType": "uint64",
              "name": "gsmNumber",
              "type": "uint64"
            }
          ],
          "name": "sendNoticeData",
          "outputs": [],
          "stateMutability": "nonpayable",
          "type": "function"
        },
        {
          "inputs": [
            {
              "internalType": "uint64",
              "name": "noticeID",
              "type": "uint64"
            },
            {
              "internalType": "uint64",
              "name": "jobID",
              "type": "uint64"
            },
            {
              "internalType": "uint8",
              "name": "status",
              "type": "uint8"
            }
          ],
          "name": "updateNoticeStatus",
          "outputs": [],
          "stateMutability": "nonpayable",
          "type": "function"
        }
      ],
      "evm": {
        "bytecode": {
          "linkReferences": {},
          "object": "6080604052348015600f57600080fd5b506106968061001f6000396000f3fe608060405234801561001057600080fd5b50600436106100365760003560e01c80631508c4921461003b5780632e293d2214610057575b600080fd5b61005560048036038101906100509190610452565b610073565b005b610071600480360381019061006c91906104ff565b61013a565b005b806000808467ffffffffffffffff1667ffffffffffffffff16815260200190815260200160002060006101000a81548167ffffffffffffffff021916908367ffffffffffffffff1602179055507f671c8b4f2b4548b6e727bff02051c90f8391b4bccafdab0a6b0eb12cc18f3255826040516100ef9190610561565b60405180910390a17fc5d950218910b25f2def8f1ae6165240e411cc7c450ddb19864e86cc9436b56c8484848460405161012c94939291906105da565b60405180910390a150505050565b7fff2c145f85497ed53c004ea1659d6fbd0de4e9938e44f4aefe32f6d23d25c40a836040516101699190610561565b60405180910390a16000600160008467ffffffffffffffff1667ffffffffffffffff16815260200190815260200160002060000160099054906101000a900460ff1661028e5760018060008567ffffffffffffffff1667ffffffffffffffff16815260200190815260200160002060000160096101000a81548160ff02191690831515021790555083600160008567ffffffffffffffff1667ffffffffffffffff16815260200190815260200160002060000160006101000a81548167ffffffffffffffff021916908367ffffffffffffffff16021790555081600160008567ffffffffffffffff1667ffffffffffffffff16815260200190815260200160002060000160086101000a81548160ff021916908360ff1602179055506001905061031b565b8160ff16600160008567ffffffffffffffff1667ffffffffffffffff16815260200190815260200160002060000160089054906101000a900460ff1660ff161461031a5781600160008567ffffffffffffffff1667ffffffffffffffff16815260200190815260200160002060000160086101000a81548160ff021916908360ff160217905550600190505b5b801561039d5760008060008667ffffffffffffffff1667ffffffffffffffff16815260200190815260200160002060009054906101000a900467ffffffffffffffff1690507f9efc5c86301e2ccf0abfa11a164c4f77fc8c37cf5fc1c59877166089f3104b7583868360405161039393929190610629565b60405180910390a1505b50505050565b600080fd5b600080fd5b600080fd5b600080fd5b600080fd5b60008083601f8401126103d2576103d16103ad565b5b8235905067ffffffffffffffff8111156103ef576103ee6103b2565b5b60208301915083600182028301111561040b5761040a6103b7565b5b9250929050565b600067ffffffffffffffff82169050919050565b61042f81610412565b811461043a57600080fd5b50565b60008135905061044c81610426565b92915050565b6000806000806060858703121561046c5761046b6103a3565b5b600085013567ffffffffffffffff81111561048a576104896103a8565b5b610496878288016103bc565b945094505060206104a98782880161043d565b92505060406104ba8782880161043d565b91505092959194509250565b600060ff82169050919050565b6104dc816104c6565b81146104e757600080fd5b50565b6000813590506104f9816104d3565b92915050565b600080600060608486031215610518576105176103a3565b5b60006105268682870161043d565b93505060206105378682870161043d565b9250506040610548868287016104ea565b9150509250925092565b61055b81610412565b82525050565b60006020820190506105766000830184610552565b92915050565b600082825260208201905092915050565b82818337600083830152505050565b6000601f19601f8301169050919050565b60006105b9838561057c565b93506105c683858461058d565b6105cf8361059c565b840190509392505050565b600060608201905081810360008301526105f58186886105ad565b90506106046020830185610552565b6106116040830184610552565b95945050505050565b610623816104c6565b82525050565b600060608201905061063e600083018661061a565b61064b6020830185610552565b6106586040830184610552565b94935050505056fea2646970667358221220568dbaa0e6bce17924d95c635942031d63f768646da5bd51c462396fb722967564736f6c634300081b0033",
          "opcodes": "PUSH1 0x80 PUSH1 0x40 MSTORE CALLVALUE DUP1 ISZERO PUSH1 0xF JUMPI PUSH1 0x0 DUP1 REVERT JUMPDEST POP PUSH2 0x696 DUP1 PUSH2 0x1F PUSH1 0x0 CODECOPY PUSH1 0x0 RETURN INVALID PUSH1 0x80 PUSH1 0x40 MSTORE CALLVALUE DUP1 ISZERO PUSH2 0x10 JUMPI PUSH1 0x0 DUP1 REVERT JUMPDEST POP PUSH1 0x4 CALLDATASIZE LT PUSH2 0x36 JUMPI PUSH1 0x0 CALLDATALOAD PUSH1 0xE0 SHR DUP1 PUSH4 0x1508C492 EQ PUSH2 0x3B JUMPI DUP1 PUSH4 0x2E293D22 EQ PUSH2 0x57 JUMPI JUMPDEST PUSH1 0x0 DUP1 REVERT JUMPDEST PUSH2 0x55 PUSH1 0x4 DUP1 CALLDATASIZE SUB DUP2 ADD SWAP1 PUSH2 0x50 SWAP2 SWAP1 PUSH2 0x452 JUMP JUMPDEST PUSH2 0x73 JUMP JUMPDEST STOP JUMPDEST PUSH2 0x71 PUSH1 0x4 DUP1 CALLDATASIZE SUB DUP2 ADD SWAP1 PUSH2 0x6C SWAP2 SWAP1 PUSH2 0x4FF JUMP JUMPDEST PUSH2 0x13A JUMP JUMPDEST STOP JUMPDEST DUP1 PUSH1 0x0 DUP1 DUP5 PUSH8 0xFFFFFFFFFFFFFFFF AND PUSH8 0xFFFFFFFFFFFFFFFF AND DUP2 MSTORE PUSH1 0x20 ADD SWAP1 DUP2 MSTORE PUSH1 0x20 ADD PUSH1 0x0 KECCAK256 PUSH1 0x0 PUSH2 0x100 EXP DUP2 SLOAD DUP2 PUSH8 0xFFFFFFFFFFFFFFFF MUL NOT AND SWAP1 DUP4 PUSH8 0xFFFFFFFFFFFFFFFF AND MUL OR SWAP1 SSTORE POP PUSH32 0x671C8B4F2B4548B6E727BFF02051C90F8391B4BCCAFDAB0A6B0EB12CC18F3255 DUP3 PUSH1 0x40 MLOAD PUSH2 0xEF SWAP2 SWAP1 PUSH2 0x561 JUMP JUMPDEST PUSH1 0x40 MLOAD DUP1 SWAP2 SUB SWAP1 LOG1 PUSH32 0xC5D950218910B25F2DEF8F1AE6165240E411CC7C450DDB19864E86CC9436B56C DUP5 DUP5 DUP5 DUP5 PUSH1 0x40 MLOAD PUSH2 0x12C SWAP5 SWAP4 SWAP3 SWAP2 SWAP1 PUSH2 0x5DA JUMP JUMPDEST PUSH1 0x40 MLOAD DUP1 SWAP2 SUB SWAP1 LOG1 POP POP POP POP JUMP JUMPDEST PUSH32 0xFF2C145F85497ED53C004EA1659D6FBD0DE4E9938E44F4AEFE32F6D23D25C40A DUP4 PUSH1 0x40 MLOAD PUSH2 0x169 SWAP2 SWAP1 PUSH2 0x561 JUMP JUMPDEST PUSH1 0x40 MLOAD DUP1 SWAP2 SUB SWAP1 LOG1 PUSH1 0x0 PUSH1 0x1 PUSH1 0x0 DUP5 PUSH8 0xFFFFFFFFFFFFFFFF AND PUSH8 0xFFFFFFFFFFFFFFFF AND DUP2 MSTORE PUSH1 0x20 ADD SWAP1 DUP2 MSTORE PUSH1 0x20 ADD PUSH1 0x0 KECCAK256 PUSH1 0x0 ADD PUSH1 0x9 SWAP1 SLOAD SWAP1 PUSH2 0x100 EXP SWAP1 DIV PUSH1 0xFF AND PUSH2 0x28E JUMPI PUSH1 0x1 DUP1 PUSH1 0x0 DUP6 PUSH8 0xFFFFFFFFFFFFFFFF AND PUSH8 0xFFFFFFFFFFFFFFFF AND DUP2 MSTORE PUSH1 0x20 ADD SWAP1 DUP2 MSTORE PUSH1 0x20 ADD PUSH1 0x0 KECCAK256 PUSH1 0x0 ADD PUSH1 0x9 PUSH2 0x100 EXP DUP2 SLOAD DUP2 PUSH1 0xFF MUL NOT AND SWAP1 DUP4 ISZERO ISZERO MUL OR SWAP1 SSTORE POP DUP4 PUSH1 0x1 PUSH1 0x0 DUP6 PUSH8 0xFFFFFFFFFFFFFFFF AND PUSH8 0xFFFFFFFFFFFFFFFF AND DUP2 MSTORE PUSH1 0x20 ADD SWAP1 DUP2 MSTORE PUSH1 0x20 ADD PUSH1 0x0 KECCAK256 PUSH1 0x0 ADD PUSH1 0x0 PUSH2 0x100 EXP DUP2 SLOAD DUP2 PUSH8 0xFFFFFFFFFFFFFFFF MUL NOT AND SWAP1 DUP4 PUSH8 0xFFFFFFFFFFFFFFFF AND MUL OR SWAP1 SSTORE POP DUP2 PUSH1 0x1 PUSH1 0x0 DUP6 PUSH8 0xFFFFFFFFFFFFFFFF AND PUSH8 0xFFFFFFFFFFFFFFFF AND DUP2 MSTORE PUSH1 0x20 ADD SWAP1 DUP2 MSTORE PUSH1 0x20 ADD PUSH1 0x0 KECCAK256 PUSH1 0x0 ADD PUSH1 0x8 PUSH2 0x100 EXP DUP2 SLOAD DUP2 PUSH1 0xFF MUL NOT AND SWAP1 DUP4 PUSH1 0xFF AND MUL OR SWAP1 SSTORE POP PUSH1 0x1 SWAP1 POP PUSH2 0x31B JUMP JUMPDEST DUP2 PUSH1 0xFF AND PUSH1 0x1 PUSH1 0x0 DUP6 PUSH8 0xFFFFFFFFFFFFFFFF AND PUSH8 0xFFFFFFFFFFFFFFFF AND DUP2 MSTORE PUSH1 0x20 ADD SWAP1 DUP2 MSTORE PUSH1 0x20 ADD PUSH1 0x0 KECCAK256 PUSH1 0x0 ADD PUSH1 0x8 SWAP1 SLOAD SWAP1 PUSH2 0x100 EXP SWAP1 DIV PUSH1 0xFF AND PUSH1 0xFF AND EQ PUSH2 0x31A JUMPI DUP2 PUSH1 0x1 PUSH1 0x0 DUP6 PUSH8 0xFFFFFFFFFFFFFFFF AND PUSH8 0xFFFFFFFFFFFFFFFF AND DUP2 MSTORE PUSH1 0x20 ADD SWAP1 DUP2 MSTORE PUSH1 0x20 ADD PUSH1 0x0 KECCAK256 PUSH1 0x0 ADD PUSH1 0x8 PUSH2 0x100 EXP DUP2 SLOAD DUP2 PUSH1 0xFF MUL NOT AND SWAP1 DUP4 PUSH1 0xFF AND MUL OR SWAP1 SSTORE POP PUSH1 0x1 SWAP1 POP JUMPDEST JUMPDEST DUP1 ISZERO PUSH2 0x39D JUMPI PUSH1 0x0 DUP1 PUSH1 0x0 DUP7 PUSH8 0xFFFFFFFFFFFFFFFF AND PUSH8 0xFFFFFFFFFFFFFFFF AND DUP2 MSTORE PUSH1 0x20 ADD SWAP1 DUP2 MSTORE PUSH1 0x20 ADD PUSH1 0x0 KECCAK256 PUSH1 0x0 SWAP1 SLOAD SWAP1 PUSH2 0x100 EXP SWAP1 DIV PUSH8 0xFFFFFFFFFFFFFFFF AND SWAP1 POP PUSH32 0x9EFC5C86301E2CCF0ABFA11A164C4F77FC8C37CF5FC1C59877166089F3104B75 DUP4 DUP7 DUP4 PUSH1 0x40 MLOAD PUSH2 0x393 SWAP4 SWAP3 SWAP2 SWAP1 PUSH2 0x629 JUMP JUMPDEST PUSH1 0x40 MLOAD DUP1 SWAP2 SUB SWAP1 LOG1 POP JUMPDEST POP POP POP POP JUMP JUMPDEST PUSH1 0x0 DUP1 REVERT JUMPDEST PUSH1 0x0 DUP1 REVERT JUMPDEST PUSH1 0x0 DUP1 REVERT JUMPDEST PUSH1 0x0 DUP1 REVERT JUMPDEST PUSH1 0x0 DUP1 REVERT JUMPDEST PUSH1 0x0 DUP1 DUP4 PUSH1 0x1F DUP5 ADD SLT PUSH2 0x3D2 JUMPI PUSH2 0x3D1 PUSH2 0x3AD JUMP JUMPDEST JUMPDEST DUP3 CALLDATALOAD SWAP1 POP PUSH8 0xFFFFFFFFFFFFFFFF DUP2 GT ISZERO PUSH2 0x3EF JUMPI PUSH2 0x3EE PUSH2 0x3B2 JUMP JUMPDEST JUMPDEST PUSH1 0x20 DUP4 ADD SWAP2 POP DUP4 PUSH1 0x1 DUP3 MUL DUP4 ADD GT ISZERO PUSH2 0x40B JUMPI PUSH2 0x40A PUSH2 0x3B7 JUMP JUMPDEST JUMPDEST SWAP3 POP SWAP3 SWAP1 POP JUMP JUMPDEST PUSH1 0x0 PUSH8 0xFFFFFFFFFFFFFFFF DUP3 AND SWAP1 POP SWAP2 SWAP1 POP JUMP JUMPDEST PUSH2 0x42F DUP2 PUSH2 0x412 JUMP JUMPDEST DUP2 EQ PUSH2 0x43A JUMPI PUSH1 0x0 DUP1 REVERT JUMPDEST POP JUMP JUMPDEST PUSH1 0x0 DUP2 CALLDATALOAD SWAP1 POP PUSH2 0x44C DUP2 PUSH2 0x426 JUMP JUMPDEST SWAP3 SWAP2 POP POP JUMP JUMPDEST PUSH1 0x0 DUP1 PUSH1 0x0 DUP1 PUSH1 0x60 DUP6 DUP8 SUB SLT ISZERO PUSH2 0x46C JUMPI PUSH2 0x46B PUSH2 0x3A3 JUMP JUMPDEST JUMPDEST PUSH1 0x0 DUP6 ADD CALLDATALOAD PUSH8 0xFFFFFFFFFFFFFFFF DUP2 GT ISZERO PUSH2 0x48A JUMPI PUSH2 0x489 PUSH2 0x3A8 JUMP JUMPDEST JUMPDEST PUSH2 0x496 DUP8 DUP3 DUP9 ADD PUSH2 0x3BC JUMP JUMPDEST SWAP5 POP SWAP5 POP POP PUSH1 0x20 PUSH2 0x4A9 DUP8 DUP3 DUP9 ADD PUSH2 0x43D JUMP JUMPDEST SWAP3 POP POP PUSH1 0x40 PUSH2 0x4BA DUP8 DUP3 DUP9 ADD PUSH2 0x43D JUMP JUMPDEST SWAP2 POP POP SWAP3 SWAP6 SWAP2 SWAP5 POP SWAP3 POP JUMP JUMPDEST PUSH1 0x0 PUSH1 0xFF DUP3 AND SWAP1 POP SWAP2 SWAP1 POP JUMP JUMPDEST PUSH2 0x4DC DUP2 PUSH2 0x4C6 JUMP JUMPDEST DUP2 EQ PUSH2 0x4E7 JUMPI PUSH1 0x0 DUP1 REVERT JUMPDEST POP JUMP JUMPDEST PUSH1 0x0 DUP2 CALLDATALOAD SWAP1 POP PUSH2 0x4F9 DUP2 PUSH2 0x4D3 JUMP JUMPDEST SWAP3 SWAP2 POP POP JUMP JUMPDEST PUSH1 0x0 DUP1 PUSH1 0x0 PUSH1 0x60 DUP5 DUP7 SUB SLT ISZERO PUSH2 0x518 JUMPI PUSH2 0x517 PUSH2 0x3A3 JUMP JUMPDEST JUMPDEST PUSH1 0x0 PUSH2 0x526 DUP7 DUP3 DUP8 ADD PUSH2 0x43D JUMP JUMPDEST SWAP4 POP POP PUSH1 0x20 PUSH2 0x537 DUP7 DUP3 DUP8 ADD PUSH2 0x43D JUMP JUMPDEST SWAP3 POP POP PUSH1 0x40 PUSH2 0x548 DUP7 DUP3 DUP8 ADD PUSH2 0x4EA JUMP JUMPDEST SWAP2 POP POP SWAP3 POP SWAP3 POP SWAP3 JUMP JUMPDEST PUSH2 0x55B DUP2 PUSH2 0x412 JUMP JUMPDEST DUP3 MSTORE POP POP JUMP JUMPDEST PUSH1 0x0 PUSH1 0x20 DUP3 ADD SWAP1 POP PUSH2 0x576 PUSH1 0x0 DUP4 ADD DUP5 PUSH2 0x552 JUMP JUMPDEST SWAP3 SWAP2 POP POP JUMP JUMPDEST PUSH1 0x0 DUP3 DUP3 MSTORE PUSH1 0x20 DUP3 ADD SWAP1 POP SWAP3 SWAP2 POP POP JUMP JUMPDEST DUP3 DUP2 DUP4 CALLDATACOPY PUSH1 0x0 DUP4 DUP4 ADD MSTORE POP POP POP JUMP JUMPDEST PUSH1 0x0 PUSH1 0x1F NOT PUSH1 0x1F DUP4 ADD AND SWAP1 POP SWAP2 SWAP1 POP JUMP JUMPDEST PUSH1 0x0 PUSH2 0x5B9 DUP4 DUP6 PUSH2 0x57C JUMP JUMPDEST SWAP4 POP PUSH2 0x5C6 DUP4 DUP6 DUP5 PUSH2 0x58D JUMP JUMPDEST PUSH2 0x5CF DUP4 PUSH2 0x59C JUMP JUMPDEST DUP5 ADD SWAP1 POP SWAP4 SWAP3 POP POP POP JUMP JUMPDEST PUSH1 0x0 PUSH1 0x60 DUP3 ADD SWAP1 POP DUP2 DUP2 SUB PUSH1 0x0 DUP4 ADD MSTORE PUSH2 0x5F5 DUP2 DUP7 DUP9 PUSH2 0x5AD JUMP JUMPDEST SWAP1 POP PUSH2 0x604 PUSH1 0x20 DUP4 ADD DUP6 PUSH2 0x552 JUMP JUMPDEST PUSH2 0x611 PUSH1 0x40 DUP4 ADD DUP5 PUSH2 0x552 JUMP JUMPDEST SWAP6 SWAP5 POP POP POP POP POP JUMP JUMPDEST PUSH2 0x623 DUP2 PUSH2 0x4C6 JUMP JUMPDEST DUP3 MSTORE POP POP JUMP JUMPDEST PUSH1 0x0 PUSH1 0x60 DUP3 ADD SWAP1 POP PUSH2 0x63E PUSH1 0x0 DUP4 ADD DUP7 PUSH2 0x61A JUMP JUMPDEST PUSH2 0x64B PUSH1 0x20 DUP4 ADD DUP6 PUSH2 0x552 JUMP JUMPDEST PUSH2 0x658 PUSH1 0x40 DUP4 ADD DUP5 PUSH2 0x552 JUMP JUMPDEST SWAP5 SWAP4 POP POP POP POP JUMP INVALID LOG2 PUSH5 0x6970667358 0x22 SLT KECCAK256 JUMP DUP14 0xBA LOG0 0xE6 0xBC 0xE1 PUSH26 0x24D95C635942031D63F768646DA5BD51C462396FB72296756473 PUSH16 0x6C634300081B00330000000000000000 "
        },
        "methodIdentifiers": {
          "sendNoticeData(string,uint64,uint64)": "1508c492",
          "updateNoticeStatus(uint64,uint64,uint8)": "2e293d22"
        }
      }
    }
  }
}