{
  "contracts/Transceiver.sol": {
    "Transceiver": {
      "abi": [
        {
          "anonymous": false,
          "inputs": [
            {
              "indexed": false,
              "internalType": "string",
              "name": "noticeData",
              "type": "string"
            },
            {
              "indexed": false,
              "internalType": "uint64",
              "name": "noticeID",
              "type": "uint64"
            },
            {
              "indexed": false,
              "internalType": "uint64",
              "name": "gsmNumber",
              "type": "uint64"
            }
          ],
          "name": "NoticeData",
          "type": "event"
        },
        {
          "anonymous": false,
          "inputs": [
            {
              "indexed": false,
              "internalType": "uint8",
              "name": "status",
              "type": "uint8"
            },
            {
              "indexed": false,
              "internalType": "uint64",
              "name": "noticeID",
              "type": "uint64"
            },
            {
              "indexed": false,
              "internalType": "uint64",
              "name": "gsmNumber",
              "type": "uint64"
            }
          ],
          "name": "NoticeSent",
          "type": "event"
        },
        {
          "inputs": [
            {
              "internalType": "string",
              "name": "noticeData",
              "type": "string"
            },
            {
              "internalType": "uint64",
              "name": "noticeID",
              "type": "uint64"
            },
            {
              "internalType": "uint64",
              "name": "gsmNumber",
              "type": "uint64"
            }
          ],
          "name": "sendNoticeData",
          "outputs": [],
          "stateMutability": "nonpayable",
          "type": "function"
        },
        {
          "inputs": [
            {
              "internalType": "uint64",
              "name": "noticeID",
              "type": "uint64"
            },
            {
              "internalType": "uint64",
              "name": "jobID",
              "type": "uint64"
            },
            {
              "internalType": "uint8",
              "name": "status",
              "type": "uint8"
            }
          ],
          "name": "updateNoticeStatus",
          "outputs": [],
          "stateMutability": "nonpayable",
          "type": "function"
        }
      ],
      "evm": {
        "bytecode": {
          "linkReferences": {},
          "object": "6080604052348015600f57600080fd5b5061060d8061001f6000396000f3fe608060405234801561001057600080fd5b50600436106100365760003560e01c80631508c4921461003b5780632e293d2214610057575b600080fd5b610055600480360381019061005091906103e4565b610073565b005b610071600480360381019061006c9190610491565b610103565b005b806000808467ffffffffffffffff1667ffffffffffffffff16815260200190815260200160002060006101000a81548167ffffffffffffffff021916908367ffffffffffffffff1602179055507fc5d950218910b25f2def8f1ae6165240e411cc7c450ddb19864e86cc9436b56c848484846040516100f59493929190610551565b60405180910390a150505050565b6000600160008467ffffffffffffffff1667ffffffffffffffff16815260200190815260200160002060000160099054906101000a900460ff166102205760018060008567ffffffffffffffff1667ffffffffffffffff16815260200190815260200160002060000160096101000a81548160ff02191690831515021790555083600160008567ffffffffffffffff1667ffffffffffffffff16815260200190815260200160002060000160006101000a81548167ffffffffffffffff021916908367ffffffffffffffff16021790555081600160008567ffffffffffffffff1667ffffffffffffffff16815260200190815260200160002060000160086101000a81548160ff021916908360ff160217905550600190506102ad565b8160ff16600160008567ffffffffffffffff1667ffffffffffffffff16815260200190815260200160002060000160089054906101000a900460ff1660ff16146102ac5781600160008567ffffffffffffffff1667ffffffffffffffff16815260200190815260200160002060000160086101000a81548160ff021916908360ff160217905550600190505b5b801561032f5760008060008667ffffffffffffffff1667ffffffffffffffff16815260200190815260200160002060009054906101000a900467ffffffffffffffff1690507f9efc5c86301e2ccf0abfa11a164c4f77fc8c37cf5fc1c59877166089f3104b75838683604051610325939291906105a0565b60405180910390a1505b50505050565b600080fd5b600080fd5b600080fd5b600080fd5b600080fd5b60008083601f8401126103645761036361033f565b5b8235905067ffffffffffffffff81111561038157610380610344565b5b60208301915083600182028301111561039d5761039c610349565b5b9250929050565b600067ffffffffffffffff82169050919050565b6103c1816103a4565b81146103cc57600080fd5b50565b6000813590506103de816103b8565b92915050565b600080600080606085870312156103fe576103fd610335565b5b600085013567ffffffffffffffff81111561041c5761041b61033a565b5b6104288782880161034e565b9450945050602061043b878288016103cf565b925050604061044c878288016103cf565b91505092959194509250565b600060ff82169050919050565b61046e81610458565b811461047957600080fd5b50565b60008135905061048b81610465565b92915050565b6000806000606084860312156104aa576104a9610335565b5b60006104b8868287016103cf565b93505060206104c9868287016103cf565b92505060406104da8682870161047c565b9150509250925092565b600082825260208201905092915050565b82818337600083830152505050565b6000601f19601f8301169050919050565b600061052183856104e4565b935061052e8385846104f5565b61053783610504565b840190509392505050565b61054b816103a4565b82525050565b6000606082019050818103600083015261056c818688610515565b905061057b6020830185610542565b6105886040830184610542565b95945050505050565b61059a81610458565b82525050565b60006060820190506105b56000830186610591565b6105c26020830185610542565b6105cf6040830184610542565b94935050505056fea264697066735822122097fdcf91fca057b175367edb80e6ce84bcf196e34cd76cc969afc20651cbccda64736f6c634300081b0033",
          "opcodes": "PUSH1 0x80 PUSH1 0x40 MSTORE CALLVALUE DUP1 ISZERO PUSH1 0xF JUMPI PUSH1 0x0 DUP1 REVERT JUMPDEST POP PUSH2 0x60D DUP1 PUSH2 0x1F PUSH1 0x0 CODECOPY PUSH1 0x0 RETURN INVALID PUSH1 0x80 PUSH1 0x40 MSTORE CALLVALUE DUP1 ISZERO PUSH2 0x10 JUMPI PUSH1 0x0 DUP1 REVERT JUMPDEST POP PUSH1 0x4 CALLDATASIZE LT PUSH2 0x36 JUMPI PUSH1 0x0 CALLDATALOAD PUSH1 0xE0 SHR DUP1 PUSH4 0x1508C492 EQ PUSH2 0x3B JUMPI DUP1 PUSH4 0x2E293D22 EQ PUSH2 0x57 JUMPI JUMPDEST PUSH1 0x0 DUP1 REVERT JUMPDEST PUSH2 0x55 PUSH1 0x4 DUP1 CALLDATASIZE SUB DUP2 ADD SWAP1 PUSH2 0x50 SWAP2 SWAP1 PUSH2 0x3E4 JUMP JUMPDEST PUSH2 0x73 JUMP JUMPDEST STOP JUMPDEST PUSH2 0x71 PUSH1 0x4 DUP1 CALLDATASIZE SUB DUP2 ADD SWAP1 PUSH2 0x6C SWAP2 SWAP1 PUSH2 0x491 JUMP JUMPDEST PUSH2 0x103 JUMP JUMPDEST STOP JUMPDEST DUP1 PUSH1 0x0 DUP1 DUP5 PUSH8 0xFFFFFFFFFFFFFFFF AND PUSH8 0xFFFFFFFFFFFFFFFF AND DUP2 MSTORE PUSH1 0x20 ADD SWAP1 DUP2 MSTORE PUSH1 0x20 ADD PUSH1 0x0 KECCAK256 PUSH1 0x0 PUSH2 0x100 EXP DUP2 SLOAD DUP2 PUSH8 0xFFFFFFFFFFFFFFFF MUL NOT AND SWAP1 DUP4 PUSH8 0xFFFFFFFFFFFFFFFF AND MUL OR SWAP1 SSTORE POP PUSH32 0xC5D950218910B25F2DEF8F1AE6165240E411CC7C450DDB19864E86CC9436B56C DUP5 DUP5 DUP5 DUP5 PUSH1 0x40 MLOAD PUSH2 0xF5 SWAP5 SWAP4 SWAP3 SWAP2 SWAP1 PUSH2 0x551 JUMP JUMPDEST PUSH1 0x40 MLOAD DUP1 SWAP2 SUB SWAP1 LOG1 POP POP POP POP JUMP JUMPDEST PUSH1 0x0 PUSH1 0x1 PUSH1 0x0 DUP5 PUSH8 0xFFFFFFFFFFFFFFFF AND PUSH8 0xFFFFFFFFFFFFFFFF AND DUP2 MSTORE PUSH1 0x20 ADD SWAP1 DUP2 MSTORE PUSH1 0x20 ADD PUSH1 0x0 KECCAK256 PUSH1 0x0 ADD PUSH1 0x9 SWAP1 SLOAD SWAP1 PUSH2 0x100 EXP SWAP1 DIV PUSH1 0xFF AND PUSH2 0x220 JUMPI PUSH1 0x1 DUP1 PUSH1 0x0 DUP6 PUSH8 0xFFFFFFFFFFFFFFFF AND PUSH8 0xFFFFFFFFFFFFFFFF AND DUP2 MSTORE PUSH1 0x20 ADD SWAP1 DUP2 MSTORE PUSH1 0x20 ADD PUSH1 0x0 KECCAK256 PUSH1 0x0 ADD PUSH1 0x9 PUSH2 0x100 EXP DUP2 SLOAD DUP2 PUSH1 0xFF MUL NOT AND SWAP1 DUP4 ISZERO ISZERO MUL OR SWAP1 SSTORE POP DUP4 PUSH1 0x1 PUSH1 0x0 DUP6 PUSH8 0xFFFFFFFFFFFFFFFF AND PUSH8 0xFFFFFFFFFFFFFFFF AND DUP2 MSTORE PUSH1 0x20 ADD SWAP1 DUP2 MSTORE PUSH1 0x20 ADD PUSH1 0x0 KECCAK256 PUSH1 0x0 ADD PUSH1 0x0 PUSH2 0x100 EXP DUP2 SLOAD DUP2 PUSH8 0xFFFFFFFFFFFFFFFF MUL NOT AND SWAP1 DUP4 PUSH8 0xFFFFFFFFFFFFFFFF AND MUL OR SWAP1 SSTORE POP DUP2 PUSH1 0x1 PUSH1 0x0 DUP6 PUSH8 0xFFFFFFFFFFFFFFFF AND PUSH8 0xFFFFFFFFFFFFFFFF AND DUP2 MSTORE PUSH1 0x20 ADD SWAP1 DUP2 MSTORE PUSH1 0x20 ADD PUSH1 0x0 KECCAK256 PUSH1 0x0 ADD PUSH1 0x8 PUSH2 0x100 EXP DUP2 SLOAD DUP2 PUSH1 0xFF MUL NOT AND SWAP1 DUP4 PUSH1 0xFF AND MUL OR SWAP1 SSTORE POP PUSH1 0x1 SWAP1 POP PUSH2 0x2AD JUMP JUMPDEST DUP2 PUSH1 0xFF AND PUSH1 0x1 PUSH1 0x0 DUP6 PUSH8 0xFFFFFFFFFFFFFFFF AND PUSH8 0xFFFFFFFFFFFFFFFF AND DUP2 MSTORE PUSH1 0x20 ADD SWAP1 DUP2 MSTORE PUSH1 0x20 ADD PUSH1 0x0 KECCAK256 PUSH1 0x0 ADD PUSH1 0x8 SWAP1 SLOAD SWAP1 PUSH2 0x100 EXP SWAP1 DIV PUSH1 0xFF AND PUSH1 0xFF AND EQ PUSH2 0x2AC JUMPI DUP2 PUSH1 0x1 PUSH1 0x0 DUP6 PUSH8 0xFFFFFFFFFFFFFFFF AND PUSH8 0xFFFFFFFFFFFFFFFF AND DUP2 MSTORE PUSH1 0x20 ADD SWAP1 DUP2 MSTORE PUSH1 0x20 ADD PUSH1 0x0 KECCAK256 PUSH1 0x0 ADD PUSH1 0x8 PUSH2 0x100 EXP DUP2 SLOAD DUP2 PUSH1 0xFF MUL NOT AND SWAP1 DUP4 PUSH1 0xFF AND MUL OR SWAP1 SSTORE POP PUSH1 0x1 SWAP1 POP JUMPDEST JUMPDEST DUP1 ISZERO PUSH2 0x32F JUMPI PUSH1 0x0 DUP1 PUSH1 0x0 DUP7 PUSH8 0xFFFFFFFFFFFFFFFF AND PUSH8 0xFFFFFFFFFFFFFFFF AND DUP2 MSTORE PUSH1 0x20 ADD SWAP1 DUP2 MSTORE PUSH1 0x20 ADD PUSH1 0x0 KECCAK256 PUSH1 0x0 SWAP1 SLOAD SWAP1 PUSH2 0x100 EXP SWAP1 DIV PUSH8 0xFFFFFFFFFFFFFFFF AND SWAP1 POP PUSH32 0x9EFC5C86301E2CCF0ABFA11A164C4F77FC8C37CF5FC1C59877166089F3104B75 DUP4 DUP7 DUP4 PUSH1 0x40 MLOAD PUSH2 0x325 SWAP4 SWAP3 SWAP2 SWAP1 PUSH2 0x5A0 JUMP JUMPDEST PUSH1 0x40 MLOAD DUP1 SWAP2 SUB SWAP1 LOG1 POP JUMPDEST POP POP POP POP JUMP JUMPDEST PUSH1 0x0 DUP1 REVERT JUMPDEST PUSH1 0x0 DUP1 REVERT JUMPDEST PUSH1 0x0 DUP1 REVERT JUMPDEST PUSH1 0x0 DUP1 REVERT JUMPDEST PUSH1 0x0 DUP1 REVERT JUMPDEST PUSH1 0x0 DUP1 DUP4 PUSH1 0x1F DUP5 ADD SLT PUSH2 0x364 JUMPI PUSH2 0x363 PUSH2 0x33F JUMP JUMPDEST JUMPDEST DUP3 CALLDATALOAD SWAP1 POP PUSH8 0xFFFFFFFFFFFFFFFF DUP2 GT ISZERO PUSH2 0x381 JUMPI PUSH2 0x380 PUSH2 0x344 JUMP JUMPDEST JUMPDEST PUSH1 0x20 DUP4 ADD SWAP2 POP DUP4 PUSH1 0x1 DUP3 MUL DUP4 ADD GT ISZERO PUSH2 0x39D JUMPI PUSH2 0x39C PUSH2 0x349 JUMP JUMPDEST JUMPDEST SWAP3 POP SWAP3 SWAP1 POP JUMP JUMPDEST PUSH1 0x0 PUSH8 0xFFFFFFFFFFFFFFFF DUP3 AND SWAP1 POP SWAP2 SWAP1 POP JUMP JUMPDEST PUSH2 0x3C1 DUP2 PUSH2 0x3A4 JUMP JUMPDEST DUP2 EQ PUSH2 0x3CC JUMPI PUSH1 0x0 DUP1 REVERT JUMPDEST POP JUMP JUMPDEST PUSH1 0x0 DUP2 CALLDATALOAD SWAP1 POP PUSH2 0x3DE DUP2 PUSH2 0x3B8 JUMP JUMPDEST SWAP3 SWAP2 POP POP JUMP JUMPDEST PUSH1 0x0 DUP1 PUSH1 0x0 DUP1 PUSH1 0x60 DUP6 DUP8 SUB SLT ISZERO PUSH2 0x3FE JUMPI PUSH2 0x3FD PUSH2 0x335 JUMP JUMPDEST JUMPDEST PUSH1 0x0 DUP6 ADD CALLDATALOAD PUSH8 0xFFFFFFFFFFFFFFFF DUP2 GT ISZERO PUSH2 0x41C JUMPI PUSH2 0x41B PUSH2 0x33A JUMP JUMPDEST JUMPDEST PUSH2 0x428 DUP8 DUP3 DUP9 ADD PUSH2 0x34E JUMP JUMPDEST SWAP5 POP SWAP5 POP POP PUSH1 0x20 PUSH2 0x43B DUP8 DUP3 DUP9 ADD PUSH2 0x3CF JUMP JUMPDEST SWAP3 POP POP PUSH1 0x40 PUSH2 0x44C DUP8 DUP3 DUP9 ADD PUSH2 0x3CF JUMP JUMPDEST SWAP2 POP POP SWAP3 SWAP6 SWAP2 SWAP5 POP SWAP3 POP JUMP JUMPDEST PUSH1 0x0 PUSH1 0xFF DUP3 AND SWAP1 POP SWAP2 SWAP1 POP JUMP JUMPDEST PUSH2 0x46E DUP2 PUSH2 0x458 JUMP JUMPDEST DUP2 EQ PUSH2 0x479 JUMPI PUSH1 0x0 DUP1 REVERT JUMPDEST POP JUMP JUMPDEST PUSH1 0x0 DUP2 CALLDATALOAD SWAP1 POP PUSH2 0x48B DUP2 PUSH2 0x465 JUMP JUMPDEST SWAP3 SWAP2 POP POP JUMP JUMPDEST PUSH1 0x0 DUP1 PUSH1 0x0 PUSH1 0x60 DUP5 DUP7 SUB SLT ISZERO PUSH2 0x4AA JUMPI PUSH2 0x4A9 PUSH2 0x335 JUMP JUMPDEST JUMPDEST PUSH1 0x0 PUSH2 0x4B8 DUP7 DUP3 DUP8 ADD PUSH2 0x3CF JUMP JUMPDEST SWAP4 POP POP PUSH1 0x20 PUSH2 0x4C9 DUP7 DUP3 DUP8 ADD PUSH2 0x3CF JUMP JUMPDEST SWAP3 POP POP PUSH1 0x40 PUSH2 0x4DA DUP7 DUP3 DUP8 ADD PUSH2 0x47C JUMP JUMPDEST SWAP2 POP POP SWAP3 POP SWAP3 POP SWAP3 JUMP JUMPDEST PUSH1 0x0 DUP3 DUP3 MSTORE PUSH1 0x20 DUP3 ADD SWAP1 POP SWAP3 SWAP2 POP POP JUMP JUMPDEST DUP3 DUP2 DUP4 CALLDATACOPY PUSH1 0x0 DUP4 DUP4 ADD MSTORE POP POP POP JUMP JUMPDEST PUSH1 0x0 PUSH1 0x1F NOT PUSH1 0x1F DUP4 ADD AND SWAP1 POP SWAP2 SWAP1 POP JUMP JUMPDEST PUSH1 0x0 PUSH2 0x521 DUP4 DUP6 PUSH2 0x4E4 JUMP JUMPDEST SWAP4 POP PUSH2 0x52E DUP4 DUP6 DUP5 PUSH2 0x4F5 JUMP JUMPDEST PUSH2 0x537 DUP4 PUSH2 0x504 JUMP JUMPDEST DUP5 ADD SWAP1 POP SWAP4 SWAP3 POP POP POP JUMP JUMPDEST PUSH2 0x54B DUP2 PUSH2 0x3A4 JUMP JUMPDEST DUP3 MSTORE POP POP JUMP JUMPDEST PUSH1 0x0 PUSH1 0x60 DUP3 ADD SWAP1 POP DUP2 DUP2 SUB PUSH1 0x0 DUP4 ADD MSTORE PUSH2 0x56C DUP2 DUP7 DUP9 PUSH2 0x515 JUMP JUMPDEST SWAP1 POP PUSH2 0x57B PUSH1 0x20 DUP4 ADD DUP6 PUSH2 0x542 JUMP JUMPDEST PUSH2 0x588 PUSH1 0x40 DUP4 ADD DUP5 PUSH2 0x542 JUMP JUMPDEST SWAP6 SWAP5 POP POP POP POP POP JUMP JUMPDEST PUSH2 0x59A DUP2 PUSH2 0x458 JUMP JUMPDEST DUP3 MSTORE POP POP JUMP JUMPDEST PUSH1 0x0 PUSH1 0x60 DUP3 ADD SWAP1 POP PUSH2 0x5B5 PUSH1 0x0 DUP4 ADD DUP7 PUSH2 0x591 JUMP JUMPDEST PUSH2 0x5C2 PUSH1 0x20 DUP4 ADD DUP6 PUSH2 0x542 JUMP JUMPDEST PUSH2 0x5CF PUSH1 0x40 DUP4 ADD DUP5 PUSH2 0x542 JUMP JUMPDEST SWAP5 SWAP4 POP POP POP POP JUMP INVALID LOG2 PUSH5 0x6970667358 0x22 SLT KECCAK256 SWAP8 REVERT 0xCF SWAP2 0xFC LOG0 JUMPI 0xB1 PUSH22 0x367EDB80E6CE84BCF196E34CD76CC969AFC20651CBCC 0xDA PUSH5 0x736F6C6343 STOP ADDMOD SHL STOP CALLER "
        },
        "methodIdentifiers": {
          "sendNoticeData(string,uint64,uint64)": "1508c492",
          "updateNoticeStatus(uint64,uint64,uint8)": "2e293d22"
        }
      }
    }
  }
}